:100000000C942A000C9447000C9447000C94470071
:100010000C9449000C9447000C9447000C94470042
:100020000C9447000C9447000C9447000C94470034
:100030000C9447000C9447000C9447000C94470024
:100040000C9447000C9447000C9447000C94470014
:100050000C94470011241FBECFE5D8E0DEBFCDBF12
:1000600010E0A0E6B0E0EEE2F5E102C005900D92EE
:10007000A436B107D9F710E0A4E6B0E001C01D92A4
:10008000A63EB107E1F70E9418010C94950A0C9462
:1000900000001F920F920FB60F9211242F933F93DF
:1000A0008F939F93EF93FF9315BAC39A20E030E0AC
:1000B000E091E500F0E083E0EE0FFF1F8A95E1F7A5
:1000C000E20FF31FEB55FF4F80818BBB98B3822F5C
:1000D0008F5F8770987F892B88BB2F5F3F4F2830B9
:1000E000310531F7C3982091E50081E090E002C02E
:1000F000880F991F2A95E2F785BB8091E5008F5FF5
:100100008093E5008091E500883011F41092E500BD
:10011000FF91EF919F918F913F912F910F900FBE83
:100120000F901F9018959FEF9ABB8FEE87BB94BBE3
:100130008FED81BB1BBA15BA80E188BB80E282BB20
:100140008AE083BD85B5856085BD85B5886085BD40
:1001500014BC89B7806889BF10BC87E189B986E87B
:1001600080BD88E18AB91CB808951F9340E050E033
:1001700020E030E014E082B3812782BB5F9BFECF9A
:100180008CB190E08F3F910569F45F9BFECF8CB1FD
:1001900090E0009739F45F9BFECF8CB140E050E0D7
:1001A00020E030E0FA0193E0EE0FFF1F9A95E1F7AF
:1001B000E20FF31FEB59FF4F80832730310569F4BD
:1001C0004730510529F40E94E30640E050E002C0A8
:1001D0004F5F5F4F20E030E0CECF2F5F3F4FCBCF60
:1001E000CF93DF93939A80E090E0EC0121960E94F8
:1001F000F70988EE93E00E94D4069398929A859B23
:100200000EC0B49B0FC088EE93E00E94D406929873
:10021000939A859B04C0B49B05C0CE01E6CF22E033
:1002200030E002C021E030E0C901DF91CF910895B4
:10023000EF92FF920F931F93CF93DF9381E0809310
:10024000E5000E9493000E94F000789454C000E002
:1002500010E080E00E945003C130D10549F0C23067
:10026000D10551F0209759F4C8010E949F0207C0A0
:10027000C8010E94CC0203C0C8010E94230388E881
:1002800093E10E94D4060F5F1F4F0830110509F754
:100290002196C330D105DCF280E00E94500380E15A
:1002A00097E20E94D406EE24FF2480E00E945003CF
:1002B00000E010E012C0C801BE01A7010E947E014B
:1002C00084EF91E00E94D4062196C830D10599F7B9
:1002D0000F5F1F4F0830110519F0C0E0D0E0EBCFE1
:1002E00080E197E20E94D4060894E11CF11C88E0AA
:1002F000E816F104D1F6C0E0D0E0CBCFDC018830C5
:100300009105F0F477FD1CC068307105CCF457FD01
:1003100017C048305105A4F4FA0183E0EE0FFF1F27
:100320008A95E1F7E60FF71FEB55FF4F208181E03B
:1003300090E002C0880F991FAA95E2F7282B20832E
:100340000895DC0188309105F0F477FD1CC0683019
:100350007105CCF457FD17C048305105A4F4FA01DB
:1003600093E0EE0FFF1F9A95E1F7E60FF71FEB59A9
:10037000FF4F208181E090E002C0880F991FAA956D
:10038000E2F7282B20830895DC0188309105F8F4EA
:1003900077FD1DC068307105D4F457FD18C0483092
:1003A0005105ACF4FA0123E0EE0FFF1F2A95E1F7A7
:1003B000E60FF71FEB55FF4F208181E090E002C070
:1003C000880F991FAA95E2F780958223808308956C
:1003D000DC0188309105F8F477FD1DC068307105A7
:1003E000D4F457FD18C048305105ACF4FA0133E09D
:1003F000EE0FFF1F3A95E1F7E60FF71FEB59FF4F9E
:10040000208181E090E002C0880F991FAA95E2F751
:100410008095822380830895089778F477FD0DC036
:100420006830710554F457FD08C090E0483051051C
:100430000CF091E081E0982701C090E0892F0895A9
:100440009C01FA0188309105E0F477FD1AC068300C
:100450007105BCF457FD15C04830510594F443E0D4
:10046000EE0FFF1F4A95E1F7E60FF71FEB55FF4F21
:10047000808190E002C0959587952A95E2F781707A
:10048000089580E00895DC012130310501F58830C0
:100490009105F8F477FD1DC068307105D4F457FD5F
:1004A00018C048305105ACF4FA0153E0EE0FFF1FBD
:1004B0005A95E1F7E60FF71FEB55FF4F808102C019
:1004C000220F331FAA95E2F7822B808308950E94A2
:1004D000C4010895DC0188309105F0F477FD1CC05B
:1004E00068307105CCF457FD17C048305105A4F4AD
:1004F000FA01B3E0EE0FFF1FBA95E1F7E60FF71F21
:10050000EB55FF4F208181E090E002C0880F991FDA
:10051000AA95E2F7282720830895CF93DF93FC0163
:10052000DA01E901681779071CF4CB01BF01FC016E
:10053000ED93FC9379836883DF91CF9108958830A0
:10054000910598F420E030E043E0880F991F4A9528
:10055000E1F74FEFFC01E20FF31FEB55FF4F408334
:100560002F5F3F4F28303105A9F708958830910556
:1005700090F420E030E053E0880F991F5A95E1F79E
:10058000FC01E20FF31FEB55FF4F10822F5F3F4F2F
:1005900028303105A9F708959C018830910530F580
:1005A00081E090E002C0880F991F2A95E2F7982F0A
:1005B00040E050E012C0FB01E20FF31FEB55FF4F8C
:1005C0008081892B80832F5F3F4F2830310599F739
:1005D0004F5F5F4F4830510549F020E030E0BA01ED
:1005E000E3E0660F771FEA95E1F7E5CF08959C01F8
:1005F0008830910538F581E090E002C0880F991F9E
:100600002A95E2F7982F909540E050E012C0FB0148
:10061000E20FF31FEB55FF4F8081892380832F5F0B
:100620003F4F2830310599F74F5F5F4F48305105F4
:1006300049F020E030E0BA01F3E0660F771FFA9549
:10064000E1F7E5CF08958830910598F420E030E097
:100650004FEFF901A3E0EE0FFF1FAA95E1F7E80FB6
:10066000F91FEB55FF4F40832F5F3F4F2830310577
:1006700081F708958830910590F420E030E0F90189
:10068000B3E0EE0FFF1FBA95E1F7E80FF91FEB5546
:10069000FF4F10822F5F3F4F2830310581F70895BB
:1006A00040E050E010C0FB01E20FF31FEB55FF4F9D
:1006B00080832F5F3F4F28303105A9F74F5F5F4F91
:1006C0004830510549F020E030E0BA0193E0660F70
:1006D000771F9A95E1F7E7CF089540E050E010C00A
:1006E000FB01E20FF31FEB59FF4F80832F5F3F4F5A
:1006F00028303105A9F74F5F5F4F4830510549F069
:1007000020E030E0BA01E3E0660F771FEA95E1F7F9
:10071000E7CF0895EF92FF920F931F93CF93DF934C
:10072000DC01EB01F9012817390714F4D901FC01A8
:100730000C171D071CF4CE01E8018C01E416F50628
:100740001CF4CA01A7017C0131968FEF90E09C0157
:1007500002C0220F331FEA95E2F7209502C0880FEE
:10076000991FAA95E2F728230EC0FB01EA0FFB1F91
:10077000EB55FF4F8081822B808311960A171B0750
:10078000A4F74F5F5F4FE416F50644F0DE01BA01AF
:10079000F3E0660F771FFA95E1F7F0CFDF91CF9185
:1007A0001F910F91FF90EF900895CF92DF92EF92FB
:1007B000FF920F931F93CF93DF93DC01F90128176A
:1007C000390714F4D901FC01061717071CF4CB01F3
:1007D000B8018C01E416F5061CF4CA01A7017C01DE
:1007E00081E090E09C010E2E02C0220F331F0A947C
:1007F000E2F70A2E02C0880F991F0A94E2F7C22E70
:10080000C82A31968FEF90E09C0102C0220F331F5F
:10081000EA95E2F7D22ED09402C0880F991FAA95CC
:10082000E2F7D8229A0121C0A617B70749F0A0170E
:10083000B10731F02417350719F02E153F0539F4AB
:10084000FE01EA0FFB1FEB55FF4FD08208C0FE01EF
:10085000EA0FFB1FEB55FF4F80818C298083119697
:100860000A171B070CF72F5F3F4FE216F30644F001
:10087000DB01E90183E0CC0FDD1F8A95E1F7F0CFC2
:10088000DF91CF911F910F91FF90EF90DF90CF906C
:1008900008958F929F92AF92BF92CF92DF92EF9284
:1008A000FF920F931F93CF93DF934C016B01EA01EB
:1008B00059012817390714F449015C010C151D056D
:1008C0001CF4C60168018C01EC16FD061CF4CE0177
:1008D000E7017C010894A11CB11C8FEF90E09C0102
:1008E0000A2C02C0220F331F0A94E2F70894A108D1
:1008F000B1082095082C02C0880F991F0A94E2F7CE
:100900002823BE0183E0660F771F8A95E1F7FB017C
:10091000EC0DFD1DEB55FF4F2083FB01E00FF11F98
:10092000EB55FF4F2083A701B3E0440F551FBA9545
:10093000E1F7FA01EC0DFD1DEB55FF4F2083FA01A5
:10094000E00FF11FEB55FF4F208381E090E09C0109
:10095000082C02C0220F331F0A94E2F70A2C02C0AF
:10096000880F991F0A94E2F7982FD60149C088E0B2
:100970008816910400F5B7FD1EC0A830B105DCF45F
:10098000D7FD0BC0C830D10544F4FB01EA0FFB1FB3
:10099000EB55FF4F8081822B8083F7FC0CC088E0F1
:1009A000E816F10444F4FA01EA0FFB1FEB55FF4F80
:1009B0008081822B808388E0A816B10400F5B7FD02
:1009C0001EC0A830B105DCF4D7FD0BC0C830D1057E
:1009D00044F4FB01EA0FFB1FEB55FF4F8081892B8D
:1009E0008083F7FC0CC088E0E816F10444F4FA01B7
:1009F000EA0FFB1FEB55FF4F8081892B80831196F7
:100A00000A171B070CF0B3CFAE0168C088E0881648
:100A1000910478F5D7FC16C088E0C816D10494F488
:100A200057FD10C0483051056CF4FA01A3E0EE0FF9
:100A3000FF1FAA95E1F7EC0DFD1DEB55FF4F8081DF
:100A4000822B808317FD15C00830110594F457FDE3
:100A500010C0483051056CF4FA0173E0EE0FFF1F2F
:100A60007A95E1F7E00FF11FEB55FF4F8081822B64
:100A7000808388E0A816B10478F5D7FC16C088E01A
:100A8000C816D10494F457FD10C0483051056CF4D9
:100A9000FA0163E0EE0FFF1F6A95E1F7EC0DFD1D13
:100AA000EB55FF4F8081892B808317FD15C00830DF
:100AB000110594F457FD10C0483051056CF4FA014B
:100AC00033E0EE0FFF1F3A95E1F7E00FF11FEB5512
:100AD000FF4F8081892B80834F5F5F4FE416F506BF
:100AE0000CF094CFDF91CF911F910F91FF90EF9079
:100AF000DF90CF90BF90AF909F908F9008956F5FE1
:100B00007F4F2FEF30E0A90102C0440F551F6A95B7
:100B1000E2F7BA01609502C0220F331F8A95E2F70F
:100B2000862F82230895482F282F30E082958695BE
:100B300087708270942F991F9927991F892B942F62
:100B40009695969596959470892B46954870842B2A
:100B5000220F331F922F9071892B220F331F220FE8
:100B6000331F922F9072892B220F331F220F331FB6
:100B7000922F9074892B220F331F220F331F822B49
:100B800008952F923F924F925F926F927F928F9231
:100B90009F92AF92BF92CF92DF92EF92FF920F930C
:100BA0001F93DF93CF93CDB7DEB762970FB6F8945C
:100BB000DEBF0FBECDBF4C015B012A0139016701C9
:100BC000281739073CF434014901C8018B015C0145
:100BD0006A0127011301281839080A151B0544F476
:100BE000B501601B710B882777FD8095982F07C092
:100BF0000A191B09B801882777FD8095982F0E9454
:100C0000B2087B018C01B101882777FD8095982F70
:100C10000E94B2089B01AC01C801B7010E941C08E8
:100C20006D837E838F839887130128183908C41435
:100C3000D50444F4B2016C197D09882777FD8095AD
:100C4000982F07C0C418D508B601882777FD80956E
:100C5000982F0E94B2087B018C01B101882777FD93
:100C60008095982F0E94B2089B01AC01C801B70182
:100C70000E941C0869837A838B839C83382CC5016E
:100C8000AA2797FDA095BA2F89879A87AB87BC873B
:100C9000C201AA2797FDA095BA2F8D879E87AF879F
:100CA000B88B61C0A989BA89A830B10508F05AC0CB
:100CB000BD0168197909882777FD8095982F0E94D2
:100CC000B2085B016C016D817E818F819885A601E0
:100CD00095010E943E097B018C0169857A858B858F
:100CE0009C850E94B2089B01AC01C801B7010E941B
:100CF000B8070E948408462E5524B8E04B165104CC
:100D00008CF569817A818B819C81A60195010E9475
:100D10003E097B018C016D857E858F8598890E94B7
:100D2000B2089B01AC01C801B7010E94B8070E943C
:100D3000840870E068307105ACF4FB0173E0EE0FDD
:100D4000FF1F7A95E1F7E40DF51DEB55FF4F20816C
:100D500081E090E0098802C0880F991F0A94E2F7A9
:100D6000282B20833394E32DF0E0FA8BE98B6E1669
:100D70007F060CF097CF62960FB6F894DEBF0FBED9
:100D8000CDBFCF91DF911F910F91FF90EF90DF903A
:100D9000CF90BF90AF909F908F907F906F905F901B
:100DA0004F903F902F9008950BC020E0000000006E
:100DB00000000000000000002F5F2A35B9F70197FE
:100DC000009799F7089540E050E014C0FB01E20F4E
:100DD000F31FDF01AB59BF4F8C91EB55FF4F808361
:100DE0002F5F3F4F2830310589F74F5F5F4F483005
:100DF000510549F020E030E0BA01E3E0660F771FCB
:100E0000EA95E1F7E3CF08952F923F924F925F92D8
:100E10006F927F929F92AF92BF92CF92DF92EF92AA
:100E2000FF920F931F93CF93DF93982E5B01CC24F7
:100E3000DD24A7E02A2E312C8FEFA8168FEFB806FD
:100E400011F4760103C07101EC18FD0800E010E018
:100E5000270108944108510837010894611C711C4E
:100E600039C08FEFA8168FEFB80611F4C30101C087
:100E7000C201AC018AE7981649F4C801BE010E947C
:100E80002002282FC801BE01A70118C089E79816C3
:100E900049F4C801BA01AE010E942002282FC801FE
:100EA000B7010BC088E7981661F4CA01BE01A8011A
:100EB0000E942002282FC701B801AE0130E00E9435
:100EC00043022196C830D10561F60F5F1F4F0830ED
:100ED000110519F0C0E0D0E0C4CF0894C11CD11CAA
:100EE00088E0C816D10409F0A7CF8FEFA8168FEFBE
:100EF000B80619F0EE24FF2403C0F7E0EF2EF12C22
:100F000000E010E01FC08AE7981621F4C801BE0176
:100F1000A7010DC089E7981621F4C801B701AE01F9
:100F200006C088E7981629F4C701BE01A8010E94EF
:100F3000C4012196C830D10531F70F5F1F4F08302B
:100F4000110519F0C0E0D0E0DECFDF91CF911F9105
:100F50000F91FF90EF90DF90CF90BF90AF909F9058
:100F60007F906F905F904F903F902F9008955058D2
:100F7000BB27AA270ED048C139D130F03ED120F08E
:100F800031F49F3F11F41EF42EC10EF4E095E7FBFF
:100F900024C1E92F4AD180F3BA1762077307840787
:100FA000950718F071F49EF562C10EF4E0950B2ED2
:100FB000BA2FA02D0B01B90190010C01CA01A001AB
:100FC0001124FF27591B99F0593F50F4503E68F106
:100FD0001A16F040A22F232F342F4427585FF3CF47
:100FE000469537952795A795F0405395C9F77EF418
:100FF0001F16BA0B620B730B840BBAF09150A1F061
:10100000FF0FBB1F661F771F881FC2F70EC0BA0FE6
:10101000621F731F841F48F4879577956795B7956E
:10102000F7959E3F08F0B3CF9395880F08F0992766
:10103000EE0F9795879508950CD0E6C0DED040F06E
:10104000D5D030F021F45F3F19F0C7C0511110C165
:10105000CAC0EBD098F39923C9F35523B1F3951B7C
:10106000550BBB27AA2762177307840738F09F5FC9
:101070005F4F220F331F441FAA1FA9F333D00E2E38
:101080003AF0E0E830D091505040E695001CCAF7A5
:1010900029D0FE2F27D0660F771F881FBB1F26176A
:1010A00037074807AB07B0E809F0BB0B802DBF013D
:1010B000FF2793585F4F2AF09E3F510568F08DC07F
:1010C000D7C05F3FECF3983EDCF386957795679544
:1010D000B795F7959F5FC9F7880F911D96958795EE
:1010E00097F90895E1E0660F771F881FBB1F62170D
:1010F00073078407BA0720F0621B730B840BBA0BCB
:10110000EE1F88F7E095089598D088F09F5790F0EB
:10111000B92F9927B751A0F0D1F0660F771F881F1C
:10112000991F1AF0BA95C9F712C0B13081F09FD05B
:10113000B1E008959CC0672F782F8827B85F39F0F9
:10114000B93FCCF3869577956795B395D9F73EF47B
:1011500090958095709561957F4F8F4F9F4F089523
:10116000E89409C097FB3EF4909580957095619541
:101170007F4F8F4F9F4F9923A9F0F92F96E9BB27F7
:101180009395F695879577956795B795F111F8CF73
:10119000FAF4BB0F11F460FF1BC06F5F7F4F8F4FDE
:1011A0009F4F16C0882311F096E911C0772321F0D4
:1011B0009EE8872F762F05C0662371F096E8862F6C
:1011C00070E060E02AF09A95660F771F881FDAF7C3
:1011D000880F9695879597F9089597F99F6780E806
:1011E00070E060E008959FEF80EC089500240A9479
:1011F0001616170618060906089500240A941216F2
:101200001306140605060895092E0394000C11F424
:10121000882352F0BB0F40F4BF2B11F460FF04C0D1
:101220006F5F7F4F8F4F9F4F089557FD9058440F2A
:10123000551F59F05F3F71F04795880F97FB991F35
:1012400061F09F3F79F087950895121613061406F2
:10125000551FF2CF4695F1DF08C01616170618067F
:10126000991FF1CF86957105610508940895E8945A
:10127000BB2766277727CB0197F908950BD0C4CFFA
:10128000B5DF28F0BADF18F0952309F0A6CFABCF71
:101290001124EECFCADFA0F3959FD1F3950F50E054
:1012A000551F629FF001729FBB27F00DB11D639F18
:1012B000AA27F00DB11DAA1F649F6627B00DA11DBE
:1012C000661F829F2227B00DA11D621F739FB00D64
:1012D000A11D621F839FA00D611D221F749F3327D4
:1012E000A00D611D231F849F600D211D822F762F6D
:1012F0006A2F11249F5750408AF0E1F088234AF06A
:10130000EE0FFF1FBB1F661F771F881F91505040B5
:10131000A9F79E3F510570F060CFAACF5F3FECF375
:10132000983EDCF3869577956795B795F795E795A1
:101330009F5FC1F7FE2B880F911D9695879597F9B2
:101340000895A0E0B0E0E7EAF9E00C94440AEC016B
:10135000A880B980CA80DB80A114B104C104D10483
:1013600041F484E2A82E89EDB82E8BE5C82E87E0E3
:10137000D82EC601B5012DE133EF41E050E00E94C7
:10138000210A27EA31E440E050E00E94020A7B0192
:101390008C01C601B5012DE133EF41E050E00E9420
:1013A000210ACA01B9012CEE34EF4FEF5FEF0E9422
:1013B000020A6E0D7F1D801F911F97FF04C06150B0
:1013C000704080409048688379838A839B839B0127
:1013D0003F77C901CDB7DEB7EAE00C94600A0E94FE
:1013E000A109089580E690E00E94A1090895A0E077
:1013F000B0E08093600090936100A0936200B0938E
:1014000063000895629FD001739FF001829FE00DF9
:10141000F11D649FE00DF11D929FF00D839FF00D73
:10142000749FF00D659FF00D9927729FB00DE11D1F
:10143000F91F639FB00DE11DF91FBD01CF011124FC
:10144000089597FB092E05260ED057FD04D04BD0EA
:101450000AD0001C38F450954095309521953F4FA7
:101460004F4F5F4F0895F6F7909580957095619571
:101470007F4F8F4F9F4F08952F923F924F925F92D1
:101480006F927F928F929F92AF92BF92CF92DF9294
:10149000EF92FF920F931F93CF93DF93CDB7DEB7F9
:1014A000CA1BDB0B0FB6F894DEBF0FBECDBF09948D
:1014B0002A88398848885F846E847D848C849B84E4
:1014C000AA84B984C884DF80EE80FD800C811B81F2
:1014D000AA81B981CE0FD11D0FB6F894DEBF0FBE21
:1014E000CDBFED010895A1E21A2EAA1BBB1BFD0181
:1014F0000DC0AA1FBB1FEE1FFF1FA217B307E407F3
:10150000F50720F0A21BB30BE40BF50B661F771F4A
:10151000881F991F1A9469F760957095809590952A
:0E1520009B01AC01BD01CF010895F894FFCFEF
:04152E0001000000B8
:00000001FF
